{
  "_format": "hh-sol-artifact-1",
  "contractName": "Migrator",
  "sourceName": "contracts/Migrator.sol",
  "abi": [
    {
      "inputs": [
        {
          "internalType": "address",
          "name": "_gfToken",
          "type": "address"
        },
        {
          "internalType": "address",
          "name": "_zentryToken",
          "type": "address"
        }
      ],
      "stateMutability": "nonpayable",
      "type": "constructor"
    },
    {
      "inputs": [
        {
          "internalType": "address",
          "name": "owner",
          "type": "address"
        }
      ],
      "name": "OwnableInvalidOwner",
      "type": "error"
    },
    {
      "inputs": [
        {
          "internalType": "address",
          "name": "account",
          "type": "address"
        }
      ],
      "name": "OwnableUnauthorizedAccount",
      "type": "error"
    },
    {
      "anonymous": false,
      "inputs": [
        {
          "indexed": true,
          "internalType": "address",
          "name": "migrant",
          "type": "address"
        },
        {
          "indexed": true,
          "internalType": "uint256",
          "name": "destinationAmount",
          "type": "uint256"
        }
      ],
      "name": "Migrated",
      "type": "event"
    },
    {
      "anonymous": false,
      "inputs": [
        {
          "indexed": true,
          "internalType": "address",
          "name": "previousOwner",
          "type": "address"
        },
        {
          "indexed": true,
          "internalType": "address",
          "name": "newOwner",
          "type": "address"
        }
      ],
      "name": "OwnershipTransferred",
      "type": "event"
    },
    {
      "inputs": [],
      "name": "MIGRATE_RATE",
      "outputs": [
        {
          "internalType": "uint256",
          "name": "",
          "type": "uint256"
        }
      ],
      "stateMutability": "view",
      "type": "function"
    },
    {
      "inputs": [],
      "name": "disableMigration",
      "outputs": [],
      "stateMutability": "nonpayable",
      "type": "function"
    },
    {
      "inputs": [],
      "name": "enableMigration",
      "outputs": [],
      "stateMutability": "nonpayable",
      "type": "function"
    },
    {
      "inputs": [],
      "name": "gfToken",
      "outputs": [
        {
          "internalType": "contract IERC20",
          "name": "",
          "type": "address"
        }
      ],
      "stateMutability": "view",
      "type": "function"
    },
    {
      "inputs": [],
      "name": "migrate",
      "outputs": [],
      "stateMutability": "nonpayable",
      "type": "function"
    },
    {
      "inputs": [],
      "name": "migrationEnabled",
      "outputs": [
        {
          "internalType": "bool",
          "name": "",
          "type": "bool"
        }
      ],
      "stateMutability": "view",
      "type": "function"
    },
    {
      "inputs": [],
      "name": "owner",
      "outputs": [
        {
          "internalType": "address",
          "name": "",
          "type": "address"
        }
      ],
      "stateMutability": "view",
      "type": "function"
    },
    {
      "inputs": [],
      "name": "renounceOwnership",
      "outputs": [],
      "stateMutability": "nonpayable",
      "type": "function"
    },
    {
      "inputs": [
        {
          "internalType": "address",
          "name": "newOwner",
          "type": "address"
        }
      ],
      "name": "transferOwnership",
      "outputs": [],
      "stateMutability": "nonpayable",
      "type": "function"
    },
    {
      "inputs": [],
      "name": "zentryToken",
      "outputs": [
        {
          "internalType": "contract ZentryToken",
          "name": "",
          "type": "address"
        }
      ],
      "stateMutability": "view",
      "type": "function"
    }
  ],
  "bytecode": "0x60c0604052600a60a09081525060018060146101000a81548160ff0219169083151502179055503480156200003357600080fd5b5060405162000e3e38038062000e3e83398181016040528101906200005991906200028c565b33600073ffffffffffffffffffffffffffffffffffffffff168173ffffffffffffffffffffffffffffffffffffffff1603620000cf5760006040517f1e4fbdf7000000000000000000000000000000000000000000000000000000008152600401620000c69190620002e4565b60405180910390fd5b620000e0816200015e60201b60201c565b508173ffffffffffffffffffffffffffffffffffffffff1660808173ffffffffffffffffffffffffffffffffffffffff168152505080600160006101000a81548173ffffffffffffffffffffffffffffffffffffffff021916908373ffffffffffffffffffffffffffffffffffffffff160217905550505062000301565b60008060009054906101000a900473ffffffffffffffffffffffffffffffffffffffff169050816000806101000a81548173ffffffffffffffffffffffffffffffffffffffff021916908373ffffffffffffffffffffffffffffffffffffffff1602179055508173ffffffffffffffffffffffffffffffffffffffff168173ffffffffffffffffffffffffffffffffffffffff167f8be0079c531659141344cd1fd0a4f28419497f9722a3daafe3b4186f6b6457e060405160405180910390a35050565b600080fd5b600073ffffffffffffffffffffffffffffffffffffffff82169050919050565b6000620002548262000227565b9050919050565b620002668162000247565b81146200027257600080fd5b50565b60008151905062000286816200025b565b92915050565b60008060408385031215620002a657620002a562000222565b5b6000620002b68582860162000275565b9250506020620002c98582860162000275565b9150509250929050565b620002de8162000247565b82525050565b6000602082019050620002fb6000830184620002d3565b92915050565b60805160a051610b026200033c6000396000818161032c01526104d201526000818161017f0152818161028e015261035a0152610b026000f3fe608060405234801561001057600080fd5b506004361061009e5760003560e01c80638da5cb5b116100665780638da5cb5b146101115780638fd3ab801461012f578063a7392d8314610139578063adf5e30c14610157578063f2fde38b146101615761009e565b80630ad9048d146100a35780631a7146f6146100c15780631d735c54146100cb57806335b944bf146100e9578063715018a614610107575b600080fd5b6100ab61017d565b6040516100b89190610771565b60405180910390f35b6100c96101a1565b005b6100d36101c5565b6040516100e091906107ad565b60405180910390f35b6100f16101eb565b6040516100fe91906107e3565b60405180910390f35b61010f6101fe565b005b610119610212565b604051610126919061081f565b60405180910390f35b61013761023b565b005b6101416104d0565b60405161014e9190610853565b60405180910390f35b61015f6104f4565b005b61017b6004803603810190610176919061089f565b610519565b005b7f000000000000000000000000000000000000000000000000000000000000000081565b6101a961059f565b60018060146101000a81548160ff021916908315150217905550565b600160009054906101000a900473ffffffffffffffffffffffffffffffffffffffff1681565b600160149054906101000a900460ff1681565b61020661059f565b6102106000610626565b565b60008060009054906101000a900473ffffffffffffffffffffffffffffffffffffffff16905090565b600160149054906101000a900460ff1661028a576040517f08c379a000000000000000000000000000000000000000000000000000000000815260040161028190610929565b60405180910390fd5b60007f000000000000000000000000000000000000000000000000000000000000000073ffffffffffffffffffffffffffffffffffffffff166370a08231336040518263ffffffff1660e01b81526004016102e5919061081f565b602060405180830381865afa158015610302573d6000803e3d6000fd5b505050506040513d601f19601f820116820180604052508101906103269190610975565b905060007f00000000000000000000000000000000000000000000000000000000000000008261035691906109d1565b90507f000000000000000000000000000000000000000000000000000000000000000073ffffffffffffffffffffffffffffffffffffffff166323b872dd3330856040518463ffffffff1660e01b81526004016103b593929190610a13565b6020604051808303816000875af11580156103d4573d6000803e3d6000fd5b505050506040513d601f19601f820116820180604052508101906103f89190610a76565b50600160009054906101000a900473ffffffffffffffffffffffffffffffffffffffff1673ffffffffffffffffffffffffffffffffffffffff166340c10f1933836040518363ffffffff1660e01b8152600401610456929190610aa3565b600060405180830381600087803b15801561047057600080fd5b505af1158015610484573d6000803e3d6000fd5b50505050803373ffffffffffffffffffffffffffffffffffffffff167f8b80bd19aea7b735bc6d75db8d6adbe18b28c30d62b3555245eb67b2340caedc60405160405180910390a35050565b7f000000000000000000000000000000000000000000000000000000000000000081565b6104fc61059f565b6000600160146101000a81548160ff021916908315150217905550565b61052161059f565b600073ffffffffffffffffffffffffffffffffffffffff168173ffffffffffffffffffffffffffffffffffffffff16036105935760006040517f1e4fbdf700000000000000000000000000000000000000000000000000000000815260040161058a919061081f565b60405180910390fd5b61059c81610626565b50565b6105a76106ea565b73ffffffffffffffffffffffffffffffffffffffff166105c5610212565b73ffffffffffffffffffffffffffffffffffffffff1614610624576105e86106ea565b6040517f118cdaa700000000000000000000000000000000000000000000000000000000815260040161061b919061081f565b60405180910390fd5b565b60008060009054906101000a900473ffffffffffffffffffffffffffffffffffffffff169050816000806101000a81548173ffffffffffffffffffffffffffffffffffffffff021916908373ffffffffffffffffffffffffffffffffffffffff1602179055508173ffffffffffffffffffffffffffffffffffffffff168173ffffffffffffffffffffffffffffffffffffffff167f8be0079c531659141344cd1fd0a4f28419497f9722a3daafe3b4186f6b6457e060405160405180910390a35050565b600033905090565b600073ffffffffffffffffffffffffffffffffffffffff82169050919050565b6000819050919050565b600061073761073261072d846106f2565b610712565b6106f2565b9050919050565b60006107498261071c565b9050919050565b600061075b8261073e565b9050919050565b61076b81610750565b82525050565b60006020820190506107866000830184610762565b92915050565b60006107978261073e565b9050919050565b6107a78161078c565b82525050565b60006020820190506107c2600083018461079e565b92915050565b60008115159050919050565b6107dd816107c8565b82525050565b60006020820190506107f860008301846107d4565b92915050565b6000610809826106f2565b9050919050565b610819816107fe565b82525050565b60006020820190506108346000830184610810565b92915050565b6000819050919050565b61084d8161083a565b82525050565b60006020820190506108686000830184610844565b92915050565b600080fd5b61087c816107fe565b811461088757600080fd5b50565b60008135905061089981610873565b92915050565b6000602082840312156108b5576108b461086e565b5b60006108c38482850161088a565b91505092915050565b600082825260208201905092915050565b7f4d6967726174696f6e2069732063757272656e746c792064697361626c656400600082015250565b6000610913601f836108cc565b915061091e826108dd565b602082019050919050565b6000602082019050818103600083015261094281610906565b9050919050565b6109528161083a565b811461095d57600080fd5b50565b60008151905061096f81610949565b92915050565b60006020828403121561098b5761098a61086e565b5b600061099984828501610960565b91505092915050565b7f4e487b7100000000000000000000000000000000000000000000000000000000600052601160045260246000fd5b60006109dc8261083a565b91506109e78361083a565b92508282026109f58161083a565b91508282048414831517610a0c57610a0b6109a2565b5b5092915050565b6000606082019050610a286000830186610810565b610a356020830185610810565b610a426040830184610844565b949350505050565b610a53816107c8565b8114610a5e57600080fd5b50565b600081519050610a7081610a4a565b92915050565b600060208284031215610a8c57610a8b61086e565b5b6000610a9a84828501610a61565b91505092915050565b6000604082019050610ab86000830185610810565b610ac56020830184610844565b939250505056fea26469706673582212209595eafc6544db45828fd0b32ab444ded48508591df7b85c32efdfa65f6f48ad64736f6c63430008140033",
  "linkReferences": {},
  "deployedLinkReferences": {}
}