{
  "contracts/Migrator.sol": {
    "Migrator": {
      "abi": [
        {
          "inputs": [
            {
              "internalType": "address",
              "name": "_gfToken",
              "type": "address"
            },
            {
              "internalType": "address",
              "name": "_zentryToken",
              "type": "address"
            }
          ],
          "stateMutability": "nonpayable",
          "type": "constructor"
        },
        {
          "inputs": [
            {
              "internalType": "address",
              "name": "owner",
              "type": "address"
            }
          ],
          "name": "OwnableInvalidOwner",
          "type": "error"
        },
        {
          "inputs": [
            {
              "internalType": "address",
              "name": "account",
              "type": "address"
            }
          ],
          "name": "OwnableUnauthorizedAccount",
          "type": "error"
        },
        {
          "anonymous": false,
          "inputs": [
            {
              "indexed": true,
              "internalType": "address",
              "name": "migrant",
              "type": "address"
            },
            {
              "indexed": true,
              "internalType": "uint256",
              "name": "destinationAmount",
              "type": "uint256"
            }
          ],
          "name": "Migrated",
          "type": "event"
        },
        {
          "anonymous": false,
          "inputs": [
            {
              "indexed": true,
              "internalType": "address",
              "name": "previousOwner",
              "type": "address"
            },
            {
              "indexed": true,
              "internalType": "address",
              "name": "newOwner",
              "type": "address"
            }
          ],
          "name": "OwnershipTransferred",
          "type": "event"
        },
        {
          "inputs": [],
          "name": "MIGRATE_RATE",
          "outputs": [
            {
              "internalType": "uint256",
              "name": "",
              "type": "uint256"
            }
          ],
          "stateMutability": "view",
          "type": "function"
        },
        {
          "inputs": [],
          "name": "disableMigration",
          "outputs": [],
          "stateMutability": "nonpayable",
          "type": "function"
        },
        {
          "inputs": [],
          "name": "enableMigration",
          "outputs": [],
          "stateMutability": "nonpayable",
          "type": "function"
        },
        {
          "inputs": [],
          "name": "gfToken",
          "outputs": [
            {
              "internalType": "contract IERC20",
              "name": "",
              "type": "address"
            }
          ],
          "stateMutability": "view",
          "type": "function"
        },
        {
          "inputs": [],
          "name": "migrate",
          "outputs": [],
          "stateMutability": "nonpayable",
          "type": "function"
        },
        {
          "inputs": [],
          "name": "migrationEnabled",
          "outputs": [
            {
              "internalType": "bool",
              "name": "",
              "type": "bool"
            }
          ],
          "stateMutability": "view",
          "type": "function"
        },
        {
          "inputs": [],
          "name": "owner",
          "outputs": [
            {
              "internalType": "address",
              "name": "",
              "type": "address"
            }
          ],
          "stateMutability": "view",
          "type": "function"
        },
        {
          "inputs": [],
          "name": "renounceOwnership",
          "outputs": [],
          "stateMutability": "nonpayable",
          "type": "function"
        },
        {
          "inputs": [
            {
              "internalType": "address",
              "name": "newOwner",
              "type": "address"
            }
          ],
          "name": "transferOwnership",
          "outputs": [],
          "stateMutability": "nonpayable",
          "type": "function"
        },
        {
          "inputs": [],
          "name": "zentryToken",
          "outputs": [
            {
              "internalType": "contract ZentryToken",
              "name": "",
              "type": "address"
            }
          ],
          "stateMutability": "view",
          "type": "function"
        }
      ],
      "evm": {
        "bytecode": {
          "linkReferences": {},
          "object": "60c03461010f57601f6109e538819003918201601f19168301916001600160401b0383118484101761011457808492604094855283398101031261010f57610052602061004b8361012a565b920161012a565b33156100f65760008054336001600160a01b031982168117835560405194926001600160a01b03928316907f8be0079c531659141344cd1fd0a4f28419497f9722a3daafe3b4186f6b6457e09080a3600a60a052600180549282166080526001600160a81b0319909216921691909117600160a01b1790556108a6908161013f82396080518181816102c3015261078b015260a05181818161021a01526102fd0152f35b604051631e4fbdf760e01b815260006004820152602490fd5b600080fd5b634e487b7160e01b600052604160045260246000fd5b51906001600160a01b038216820361010f5756fe608060408181526004908136101561001657600080fd5b600092833560e01c9081630ad9048d14610741575080631a7146f6146106c85780631d735c541461067557806335b944bf14610630578063715018a6146105945780638da5cb5b146105435780638fd3ab8014610241578063a7392d83146101e4578063adf5e30c1461017f5763f2fde38b1461009257600080fd5b3461017b5760207ffffffffffffffffffffffffffffffffffffffffffffffffffffffffffffffffc36011261017b5781359173ffffffffffffffffffffffffffffffffffffffff91828416809403610177576100ec6107af565b8315610148575050600054827fffffffffffffffffffffffff0000000000000000000000000000000000000000821617600055167f8be0079c531659141344cd1fd0a4f28419497f9722a3daafe3b4186f6b6457e0600080a380f35b908460249251917f1e4fbdf7000000000000000000000000000000000000000000000000000000008352820152fd5b8480fd5b8280fd5b83346101e157807ffffffffffffffffffffffffffffffffffffffffffffffffffffffffffffffffc3601126101e1576101b66107af565b7fffffffffffffffffffffff00ffffffffffffffffffffffffffffffffffffffff6001541660015580f35b80fd5b83823461023d57817ffffffffffffffffffffffffffffffffffffffffffffffffffffffffffffffffc36011261023d57602090517f00000000000000000000000000000000000000000000000000000000000000008152f35b5080fd5b5082346101e157807ffffffffffffffffffffffffffffffffffffffffffffffffffffffffffffffffc3601126101e15760ff60015460a01c16156104e65781517f70a0823100000000000000000000000000000000000000000000000000000000815233848201529173ffffffffffffffffffffffffffffffffffffffff60207f000000000000000000000000000000000000000000000000000000000000000082168186602481845afa9586156104815785966104b7575b507f00000000000000000000000000000000000000000000000000000000000000009586810296818804148115171561048b5791809160648794875195869384927f23b872dd0000000000000000000000000000000000000000000000000000000084528d339085015230602485015260448401525af180156104815761044a575b50506001541693843b1561017b578280949560448451809681937f40c10f1900000000000000000000000000000000000000000000000000000000835233878401528a60248401525af18015610440576103fb575b8385337f8b80bd19aea7b735bc6d75db8d6adbe18b28c30d62b3555245eb67b2340caedc8380a380f35b67ffffffffffffffff83116104145750528280806103d1565b8360416024927f4e487b7100000000000000000000000000000000000000000000000000000000835252fd5b82513d86823e3d90fd5b81813d831161047a575b61045e8183610800565b8101031261047657518015150361017b57858061037c565b8380fd5b503d610454565b84513d87823e3d90fd5b60248660118a7f4e487b7100000000000000000000000000000000000000000000000000000000835252fd5b9095508181813d83116104df575b6104cf8183610800565b81010312610177575194876102fa565b503d6104c5565b60648360208451917f08c379a0000000000000000000000000000000000000000000000000000000008352820152601f60248201527f4d6967726174696f6e2069732063757272656e746c792064697361626c6564006044820152fd5b83823461023d57817ffffffffffffffffffffffffffffffffffffffffffffffffffffffffffffffffc36011261023d5773ffffffffffffffffffffffffffffffffffffffff60209254169051908152f35b83346101e157807ffffffffffffffffffffffffffffffffffffffffffffffffffffffffffffffffc3601126101e1576105cb6107af565b8073ffffffffffffffffffffffffffffffffffffffff81547fffffffffffffffffffffffff000000000000000000000000000000000000000081168355167f8be0079c531659141344cd1fd0a4f28419497f9722a3daafe3b4186f6b6457e08280a380f35b83823461023d57817ffffffffffffffffffffffffffffffffffffffffffffffffffffffffffffffffc36011261023d5760209060ff60015460a01c1690519015158152f35b83823461023d57817ffffffffffffffffffffffffffffffffffffffffffffffffffffffffffffffffc36011261023d5760209073ffffffffffffffffffffffffffffffffffffffff600154169051908152f35b83346101e157807ffffffffffffffffffffffffffffffffffffffffffffffffffffffffffffffffc3601126101e1576106ff6107af565b740100000000000000000000000000000000000000007fffffffffffffffffffffff00ffffffffffffffffffffffffffffffffffffffff600154161760015580f35b84903461023d57817ffffffffffffffffffffffffffffffffffffffffffffffffffffffffffffffffc36011261023d5760209073ffffffffffffffffffffffffffffffffffffffff7f0000000000000000000000000000000000000000000000000000000000000000168152f35b73ffffffffffffffffffffffffffffffffffffffff6000541633036107d057565b60246040517f118cdaa7000000000000000000000000000000000000000000000000000000008152336004820152fd5b90601f7fffffffffffffffffffffffffffffffffffffffffffffffffffffffffffffffe0910116810190811067ffffffffffffffff82111761084157604052565b7f4e487b7100000000000000000000000000000000000000000000000000000000600052604160045260246000fdfea2646970667358221220faf068e0ad72f5505330783ef9909aadd87cf2212dd8d6544f8aa19dc980815964736f6c63430008140033",
          "opcodes": "PUSH1 0xC0 CALLVALUE PUSH2 0x10F JUMPI PUSH1 0x1F PUSH2 0x9E5 CODESIZE DUP2 SWAP1 SUB SWAP2 DUP3 ADD PUSH1 0x1F NOT AND DUP4 ADD SWAP2 PUSH1 0x1 PUSH1 0x1 PUSH1 0x40 SHL SUB DUP4 GT DUP5 DUP5 LT OR PUSH2 0x114 JUMPI DUP1 DUP5 SWAP3 PUSH1 0x40 SWAP5 DUP6 MSTORE DUP4 CODECOPY DUP2 ADD SUB SLT PUSH2 0x10F JUMPI PUSH2 0x52 PUSH1 0x20 PUSH2 0x4B DUP4 PUSH2 0x12A JUMP JUMPDEST SWAP3 ADD PUSH2 0x12A JUMP JUMPDEST CALLER ISZERO PUSH2 0xF6 JUMPI PUSH1 0x0 DUP1 SLOAD CALLER PUSH1 0x1 PUSH1 0x1 PUSH1 0xA0 SHL SUB NOT DUP3 AND DUP2 OR DUP4 SSTORE PUSH1 0x40 MLOAD SWAP5 SWAP3 PUSH1 0x1 PUSH1 0x1 PUSH1 0xA0 SHL SUB SWAP3 DUP4 AND SWAP1 PUSH32 0x8BE0079C531659141344CD1FD0A4F28419497F9722A3DAAFE3B4186F6B6457E0 SWAP1 DUP1 LOG3 PUSH1 0xA PUSH1 0xA0 MSTORE PUSH1 0x1 DUP1 SLOAD SWAP3 DUP3 AND PUSH1 0x80 MSTORE PUSH1 0x1 PUSH1 0x1 PUSH1 0xA8 SHL SUB NOT SWAP1 SWAP3 AND SWAP3 AND SWAP2 SWAP1 SWAP2 OR PUSH1 0x1 PUSH1 0xA0 SHL OR SWAP1 SSTORE PUSH2 0x8A6 SWAP1 DUP2 PUSH2 0x13F DUP3 CODECOPY PUSH1 0x80 MLOAD DUP2 DUP2 DUP2 PUSH2 0x2C3 ADD MSTORE PUSH2 0x78B ADD MSTORE PUSH1 0xA0 MLOAD DUP2 DUP2 DUP2 PUSH2 0x21A ADD MSTORE PUSH2 0x2FD ADD MSTORE RETURN JUMPDEST PUSH1 0x40 MLOAD PUSH4 0x1E4FBDF7 PUSH1 0xE0 SHL DUP2 MSTORE PUSH1 0x0 PUSH1 0x4 DUP3 ADD MSTORE PUSH1 0x24 SWAP1 REVERT JUMPDEST PUSH1 0x0 DUP1 REVERT JUMPDEST PUSH4 0x4E487B71 PUSH1 0xE0 SHL PUSH1 0x0 MSTORE PUSH1 0x41 PUSH1 0x4 MSTORE PUSH1 0x24 PUSH1 0x0 REVERT JUMPDEST MLOAD SWAP1 PUSH1 0x1 PUSH1 0x1 PUSH1 0xA0 SHL SUB DUP3 AND DUP3 SUB PUSH2 0x10F JUMPI JUMP INVALID PUSH1 0x80 PUSH1 0x40 DUP2 DUP2 MSTORE PUSH1 0x4 SWAP1 DUP2 CALLDATASIZE LT ISZERO PUSH2 0x16 JUMPI PUSH1 0x0 DUP1 REVERT JUMPDEST PUSH1 0x0 SWAP3 DUP4 CALLDATALOAD PUSH1 0xE0 SHR SWAP1 DUP2 PUSH4 0xAD9048D EQ PUSH2 0x741 JUMPI POP DUP1 PUSH4 0x1A7146F6 EQ PUSH2 0x6C8 JUMPI DUP1 PUSH4 0x1D735C54 EQ PUSH2 0x675 JUMPI DUP1 PUSH4 0x35B944BF EQ PUSH2 0x630 JUMPI DUP1 PUSH4 0x715018A6 EQ PUSH2 0x594 JUMPI DUP1 PUSH4 0x8DA5CB5B EQ PUSH2 0x543 JUMPI DUP1 PUSH4 0x8FD3AB80 EQ PUSH2 0x241 JUMPI DUP1 PUSH4 0xA7392D83 EQ PUSH2 0x1E4 JUMPI DUP1 PUSH4 0xADF5E30C EQ PUSH2 0x17F JUMPI PUSH4 0xF2FDE38B EQ PUSH2 0x92 JUMPI PUSH1 0x0 DUP1 REVERT JUMPDEST CALLVALUE PUSH2 0x17B JUMPI PUSH1 0x20 PUSH32 0xFFFFFFFFFFFFFFFFFFFFFFFFFFFFFFFFFFFFFFFFFFFFFFFFFFFFFFFFFFFFFFFC CALLDATASIZE ADD SLT PUSH2 0x17B JUMPI DUP2 CALLDATALOAD SWAP2 PUSH20 0xFFFFFFFFFFFFFFFFFFFFFFFFFFFFFFFFFFFFFFFF SWAP2 DUP3 DUP5 AND DUP1 SWAP5 SUB PUSH2 0x177 JUMPI PUSH2 0xEC PUSH2 0x7AF JUMP JUMPDEST DUP4 ISZERO PUSH2 0x148 JUMPI POP POP PUSH1 0x0 SLOAD DUP3 PUSH32 0xFFFFFFFFFFFFFFFFFFFFFFFF0000000000000000000000000000000000000000 DUP3 AND OR PUSH1 0x0 SSTORE AND PUSH32 0x8BE0079C531659141344CD1FD0A4F28419497F9722A3DAAFE3B4186F6B6457E0 PUSH1 0x0 DUP1 LOG3 DUP1 RETURN JUMPDEST SWAP1 DUP5 PUSH1 0x24 SWAP3 MLOAD SWAP2 PUSH32 0x1E4FBDF700000000000000000000000000000000000000000000000000000000 DUP4 MSTORE DUP3 ADD MSTORE REVERT JUMPDEST DUP5 DUP1 REVERT JUMPDEST DUP3 DUP1 REVERT JUMPDEST DUP4 CALLVALUE PUSH2 0x1E1 JUMPI DUP1 PUSH32 0xFFFFFFFFFFFFFFFFFFFFFFFFFFFFFFFFFFFFFFFFFFFFFFFFFFFFFFFFFFFFFFFC CALLDATASIZE ADD SLT PUSH2 0x1E1 JUMPI PUSH2 0x1B6 PUSH2 0x7AF JUMP JUMPDEST PUSH32 0xFFFFFFFFFFFFFFFFFFFFFF00FFFFFFFFFFFFFFFFFFFFFFFFFFFFFFFFFFFFFFFF PUSH1 0x1 SLOAD AND PUSH1 0x1 SSTORE DUP1 RETURN JUMPDEST DUP1 REVERT JUMPDEST DUP4 DUP3 CALLVALUE PUSH2 0x23D JUMPI DUP2 PUSH32 0xFFFFFFFFFFFFFFFFFFFFFFFFFFFFFFFFFFFFFFFFFFFFFFFFFFFFFFFFFFFFFFFC CALLDATASIZE ADD SLT PUSH2 0x23D JUMPI PUSH1 0x20 SWAP1 MLOAD PUSH32 0x0 DUP2 MSTORE RETURN JUMPDEST POP DUP1 REVERT JUMPDEST POP DUP3 CALLVALUE PUSH2 0x1E1 JUMPI DUP1 PUSH32 0xFFFFFFFFFFFFFFFFFFFFFFFFFFFFFFFFFFFFFFFFFFFFFFFFFFFFFFFFFFFFFFFC CALLDATASIZE ADD SLT PUSH2 0x1E1 JUMPI PUSH1 0xFF PUSH1 0x1 SLOAD PUSH1 0xA0 SHR AND ISZERO PUSH2 0x4E6 JUMPI DUP2 MLOAD PUSH32 0x70A0823100000000000000000000000000000000000000000000000000000000 DUP2 MSTORE CALLER DUP5 DUP3 ADD MSTORE SWAP2 PUSH20 0xFFFFFFFFFFFFFFFFFFFFFFFFFFFFFFFFFFFFFFFF PUSH1 0x20 PUSH32 0x0 DUP3 AND DUP2 DUP7 PUSH1 0x24 DUP2 DUP5 GAS STATICCALL SWAP6 DUP7 ISZERO PUSH2 0x481 JUMPI DUP6 SWAP7 PUSH2 0x4B7 JUMPI JUMPDEST POP PUSH32 0x0 SWAP6 DUP7 DUP2 MUL SWAP7 DUP2 DUP9 DIV EQ DUP2 ISZERO OR ISZERO PUSH2 0x48B JUMPI SWAP2 DUP1 SWAP2 PUSH1 0x64 DUP8 SWAP5 DUP8 MLOAD SWAP6 DUP7 SWAP4 DUP5 SWAP3 PUSH32 0x23B872DD00000000000000000000000000000000000000000000000000000000 DUP5 MSTORE DUP14 CALLER SWAP1 DUP6 ADD MSTORE ADDRESS PUSH1 0x24 DUP6 ADD MSTORE PUSH1 0x44 DUP5 ADD MSTORE GAS CALL DUP1 ISZERO PUSH2 0x481 JUMPI PUSH2 0x44A JUMPI JUMPDEST POP POP PUSH1 0x1 SLOAD AND SWAP4 DUP5 EXTCODESIZE ISZERO PUSH2 0x17B JUMPI DUP3 DUP1 SWAP5 SWAP6 PUSH1 0x44 DUP5 MLOAD DUP1 SWAP7 DUP2 SWAP4 PUSH32 0x40C10F1900000000000000000000000000000000000000000000000000000000 DUP4 MSTORE CALLER DUP8 DUP5 ADD MSTORE DUP11 PUSH1 0x24 DUP5 ADD MSTORE GAS CALL DUP1 ISZERO PUSH2 0x440 JUMPI PUSH2 0x3FB JUMPI JUMPDEST DUP4 DUP6 CALLER PUSH32 0x8B80BD19AEA7B735BC6D75DB8D6ADBE18B28C30D62B3555245EB67B2340CAEDC DUP4 DUP1 LOG3 DUP1 RETURN JUMPDEST PUSH8 0xFFFFFFFFFFFFFFFF DUP4 GT PUSH2 0x414 JUMPI POP MSTORE DUP3 DUP1 DUP1 PUSH2 0x3D1 JUMP JUMPDEST DUP4 PUSH1 0x41 PUSH1 0x24 SWAP3 PUSH32 0x4E487B7100000000000000000000000000000000000000000000000000000000 DUP4 MSTORE MSTORE REVERT JUMPDEST DUP3 MLOAD RETURNDATASIZE DUP7 DUP3 RETURNDATACOPY RETURNDATASIZE SWAP1 REVERT JUMPDEST DUP2 DUP2 RETURNDATASIZE DUP4 GT PUSH2 0x47A JUMPI JUMPDEST PUSH2 0x45E DUP2 DUP4 PUSH2 0x800 JUMP JUMPDEST DUP2 ADD SUB SLT PUSH2 0x476 JUMPI MLOAD DUP1 ISZERO ISZERO SUB PUSH2 0x17B JUMPI DUP6 DUP1 PUSH2 0x37C JUMP JUMPDEST DUP4 DUP1 REVERT JUMPDEST POP RETURNDATASIZE PUSH2 0x454 JUMP JUMPDEST DUP5 MLOAD RETURNDATASIZE DUP8 DUP3 RETURNDATACOPY RETURNDATASIZE SWAP1 REVERT JUMPDEST PUSH1 0x24 DUP7 PUSH1 0x11 DUP11 PUSH32 0x4E487B7100000000000000000000000000000000000000000000000000000000 DUP4 MSTORE MSTORE REVERT JUMPDEST SWAP1 SWAP6 POP DUP2 DUP2 DUP2 RETURNDATASIZE DUP4 GT PUSH2 0x4DF JUMPI JUMPDEST PUSH2 0x4CF DUP2 DUP4 PUSH2 0x800 JUMP JUMPDEST DUP2 ADD SUB SLT PUSH2 0x177 JUMPI MLOAD SWAP5 DUP8 PUSH2 0x2FA JUMP JUMPDEST POP RETURNDATASIZE PUSH2 0x4C5 JUMP JUMPDEST PUSH1 0x64 DUP4 PUSH1 0x20 DUP5 MLOAD SWAP2 PUSH32 0x8C379A000000000000000000000000000000000000000000000000000000000 DUP4 MSTORE DUP3 ADD MSTORE PUSH1 0x1F PUSH1 0x24 DUP3 ADD MSTORE PUSH32 0x4D6967726174696F6E2069732063757272656E746C792064697361626C656400 PUSH1 0x44 DUP3 ADD MSTORE REVERT JUMPDEST DUP4 DUP3 CALLVALUE PUSH2 0x23D JUMPI DUP2 PUSH32 0xFFFFFFFFFFFFFFFFFFFFFFFFFFFFFFFFFFFFFFFFFFFFFFFFFFFFFFFFFFFFFFFC CALLDATASIZE ADD SLT PUSH2 0x23D JUMPI PUSH20 0xFFFFFFFFFFFFFFFFFFFFFFFFFFFFFFFFFFFFFFFF PUSH1 0x20 SWAP3 SLOAD AND SWAP1 MLOAD SWAP1 DUP2 MSTORE RETURN JUMPDEST DUP4 CALLVALUE PUSH2 0x1E1 JUMPI DUP1 PUSH32 0xFFFFFFFFFFFFFFFFFFFFFFFFFFFFFFFFFFFFFFFFFFFFFFFFFFFFFFFFFFFFFFFC CALLDATASIZE ADD SLT PUSH2 0x1E1 JUMPI PUSH2 0x5CB PUSH2 0x7AF JUMP JUMPDEST DUP1 PUSH20 0xFFFFFFFFFFFFFFFFFFFFFFFFFFFFFFFFFFFFFFFF DUP2 SLOAD PUSH32 0xFFFFFFFFFFFFFFFFFFFFFFFF0000000000000000000000000000000000000000 DUP2 AND DUP4 SSTORE AND PUSH32 0x8BE0079C531659141344CD1FD0A4F28419497F9722A3DAAFE3B4186F6B6457E0 DUP3 DUP1 LOG3 DUP1 RETURN JUMPDEST DUP4 DUP3 CALLVALUE PUSH2 0x23D JUMPI DUP2 PUSH32 0xFFFFFFFFFFFFFFFFFFFFFFFFFFFFFFFFFFFFFFFFFFFFFFFFFFFFFFFFFFFFFFFC CALLDATASIZE ADD SLT PUSH2 0x23D JUMPI PUSH1 0x20 SWAP1 PUSH1 0xFF PUSH1 0x1 SLOAD PUSH1 0xA0 SHR AND SWAP1 MLOAD SWAP1 ISZERO ISZERO DUP2 MSTORE RETURN JUMPDEST DUP4 DUP3 CALLVALUE PUSH2 0x23D JUMPI DUP2 PUSH32 0xFFFFFFFFFFFFFFFFFFFFFFFFFFFFFFFFFFFFFFFFFFFFFFFFFFFFFFFFFFFFFFFC CALLDATASIZE ADD SLT PUSH2 0x23D JUMPI PUSH1 0x20 SWAP1 PUSH20 0xFFFFFFFFFFFFFFFFFFFFFFFFFFFFFFFFFFFFFFFF PUSH1 0x1 SLOAD AND SWAP1 MLOAD SWAP1 DUP2 MSTORE RETURN JUMPDEST DUP4 CALLVALUE PUSH2 0x1E1 JUMPI DUP1 PUSH32 0xFFFFFFFFFFFFFFFFFFFFFFFFFFFFFFFFFFFFFFFFFFFFFFFFFFFFFFFFFFFFFFFC CALLDATASIZE ADD SLT PUSH2 0x1E1 JUMPI PUSH2 0x6FF PUSH2 0x7AF JUMP JUMPDEST PUSH21 0x10000000000000000000000000000000000000000 PUSH32 0xFFFFFFFFFFFFFFFFFFFFFF00FFFFFFFFFFFFFFFFFFFFFFFFFFFFFFFFFFFFFFFF PUSH1 0x1 SLOAD AND OR PUSH1 0x1 SSTORE DUP1 RETURN JUMPDEST DUP5 SWAP1 CALLVALUE PUSH2 0x23D JUMPI DUP2 PUSH32 0xFFFFFFFFFFFFFFFFFFFFFFFFFFFFFFFFFFFFFFFFFFFFFFFFFFFFFFFFFFFFFFFC CALLDATASIZE ADD SLT PUSH2 0x23D JUMPI PUSH1 0x20 SWAP1 PUSH20 0xFFFFFFFFFFFFFFFFFFFFFFFFFFFFFFFFFFFFFFFF PUSH32 0x0 AND DUP2 MSTORE RETURN JUMPDEST PUSH20 0xFFFFFFFFFFFFFFFFFFFFFFFFFFFFFFFFFFFFFFFF PUSH1 0x0 SLOAD AND CALLER SUB PUSH2 0x7D0 JUMPI JUMP JUMPDEST PUSH1 0x24 PUSH1 0x40 MLOAD PUSH32 0x118CDAA700000000000000000000000000000000000000000000000000000000 DUP2 MSTORE CALLER PUSH1 0x4 DUP3 ADD MSTORE REVERT JUMPDEST SWAP1 PUSH1 0x1F PUSH32 0xFFFFFFFFFFFFFFFFFFFFFFFFFFFFFFFFFFFFFFFFFFFFFFFFFFFFFFFFFFFFFFE0 SWAP2 ADD AND DUP2 ADD SWAP1 DUP2 LT PUSH8 0xFFFFFFFFFFFFFFFF DUP3 GT OR PUSH2 0x841 JUMPI PUSH1 0x40 MSTORE JUMP JUMPDEST PUSH32 0x4E487B7100000000000000000000000000000000000000000000000000000000 PUSH1 0x0 MSTORE PUSH1 0x41 PUSH1 0x4 MSTORE PUSH1 0x24 PUSH1 0x0 REVERT INVALID LOG2 PUSH5 0x6970667358 0x22 SLT KECCAK256 STATICCALL CREATE PUSH9 0xE0AD72F5505330783E 0xF9 SWAP1 SWAP11 0xAD 0xD8 PUSH29 0xF2212DD8D6544F8AA19DC980815964736F6C6343000814003300000000 "
        },
        "methodIdentifiers": {
          "MIGRATE_RATE()": "a7392d83",
          "disableMigration()": "adf5e30c",
          "enableMigration()": "1a7146f6",
          "gfToken()": "0ad9048d",
          "migrate()": "8fd3ab80",
          "migrationEnabled()": "35b944bf",
          "owner()": "8da5cb5b",
          "renounceOwnership()": "715018a6",
          "transferOwnership(address)": "f2fde38b",
          "zentryToken()": "1d735c54"
        }
      }
    }
  }
}