{
  "_format": "hh-sol-artifact-1",
  "contractName": "TestGfToken",
  "sourceName": "contracts/mock/TestGfToken.sol",
  "abi": [
    {
      "inputs": [],
      "stateMutability": "nonpayable",
      "type": "constructor"
    },
    {
      "inputs": [
        {
          "internalType": "address",
          "name": "spender",
          "type": "address"
        },
        {
          "internalType": "uint256",
          "name": "allowance",
          "type": "uint256"
        },
        {
          "internalType": "uint256",
          "name": "needed",
          "type": "uint256"
        }
      ],
      "name": "ERC20InsufficientAllowance",
      "type": "error"
    },
    {
      "inputs": [
        {
          "internalType": "address",
          "name": "sender",
          "type": "address"
        },
        {
          "internalType": "uint256",
          "name": "balance",
          "type": "uint256"
        },
        {
          "internalType": "uint256",
          "name": "needed",
          "type": "uint256"
        }
      ],
      "name": "ERC20InsufficientBalance",
      "type": "error"
    },
    {
      "inputs": [
        {
          "internalType": "address",
          "name": "approver",
          "type": "address"
        }
      ],
      "name": "ERC20InvalidApprover",
      "type": "error"
    },
    {
      "inputs": [
        {
          "internalType": "address",
          "name": "receiver",
          "type": "address"
        }
      ],
      "name": "ERC20InvalidReceiver",
      "type": "error"
    },
    {
      "inputs": [
        {
          "internalType": "address",
          "name": "sender",
          "type": "address"
        }
      ],
      "name": "ERC20InvalidSender",
      "type": "error"
    },
    {
      "inputs": [
        {
          "internalType": "address",
          "name": "spender",
          "type": "address"
        }
      ],
      "name": "ERC20InvalidSpender",
      "type": "error"
    },
    {
      "anonymous": false,
      "inputs": [
        {
          "indexed": true,
          "internalType": "address",
          "name": "owner",
          "type": "address"
        },
        {
          "indexed": true,
          "internalType": "address",
          "name": "spender",
          "type": "address"
        },
        {
          "indexed": false,
          "internalType": "uint256",
          "name": "value",
          "type": "uint256"
        }
      ],
      "name": "Approval",
      "type": "event"
    },
    {
      "anonymous": false,
      "inputs": [
        {
          "indexed": true,
          "internalType": "address",
          "name": "from",
          "type": "address"
        },
        {
          "indexed": true,
          "internalType": "address",
          "name": "to",
          "type": "address"
        },
        {
          "indexed": false,
          "internalType": "uint256",
          "name": "value",
          "type": "uint256"
        }
      ],
      "name": "Transfer",
      "type": "event"
    },
    {
      "inputs": [],
      "name": "MINTER_ROLE",
      "outputs": [
        {
          "internalType": "bytes32",
          "name": "",
          "type": "bytes32"
        }
      ],
      "stateMutability": "view",
      "type": "function"
    },
    {
      "inputs": [
        {
          "internalType": "address",
          "name": "owner",
          "type": "address"
        },
        {
          "internalType": "address",
          "name": "spender",
          "type": "address"
        }
      ],
      "name": "allowance",
      "outputs": [
        {
          "internalType": "uint256",
          "name": "",
          "type": "uint256"
        }
      ],
      "stateMutability": "view",
      "type": "function"
    },
    {
      "inputs": [
        {
          "internalType": "address",
          "name": "spender",
          "type": "address"
        },
        {
          "internalType": "uint256",
          "name": "value",
          "type": "uint256"
        }
      ],
      "name": "approve",
      "outputs": [
        {
          "internalType": "bool",
          "name": "",
          "type": "bool"
        }
      ],
      "stateMutability": "nonpayable",
      "type": "function"
    },
    {
      "inputs": [
        {
          "internalType": "address",
          "name": "account",
          "type": "address"
        }
      ],
      "name": "balanceOf",
      "outputs": [
        {
          "internalType": "uint256",
          "name": "",
          "type": "uint256"
        }
      ],
      "stateMutability": "view",
      "type": "function"
    },
    {
      "inputs": [],
      "name": "decimals",
      "outputs": [
        {
          "internalType": "uint8",
          "name": "",
          "type": "uint8"
        }
      ],
      "stateMutability": "view",
      "type": "function"
    },
    {
      "inputs": [
        {
          "internalType": "uint256",
          "name": "amount",
          "type": "uint256"
        }
      ],
      "name": "mint",
      "outputs": [],
      "stateMutability": "nonpayable",
      "type": "function"
    },
    {
      "inputs": [],
      "name": "name",
      "outputs": [
        {
          "internalType": "string",
          "name": "",
          "type": "string"
        }
      ],
      "stateMutability": "view",
      "type": "function"
    },
    {
      "inputs": [],
      "name": "symbol",
      "outputs": [
        {
          "internalType": "string",
          "name": "",
          "type": "string"
        }
      ],
      "stateMutability": "view",
      "type": "function"
    },
    {
      "inputs": [],
      "name": "totalSupply",
      "outputs": [
        {
          "internalType": "uint256",
          "name": "",
          "type": "uint256"
        }
      ],
      "stateMutability": "view",
      "type": "function"
    },
    {
      "inputs": [
        {
          "internalType": "address",
          "name": "to",
          "type": "address"
        },
        {
          "internalType": "uint256",
          "name": "value",
          "type": "uint256"
        }
      ],
      "name": "transfer",
      "outputs": [
        {
          "internalType": "bool",
          "name": "",
          "type": "bool"
        }
      ],
      "stateMutability": "nonpayable",
      "type": "function"
    },
    {
      "inputs": [
        {
          "internalType": "address",
          "name": "from",
          "type": "address"
        },
        {
          "internalType": "address",
          "name": "to",
          "type": "address"
        },
        {
          "internalType": "uint256",
          "name": "value",
          "type": "uint256"
        }
      ],
      "name": "transferFrom",
      "outputs": [
        {
          "internalType": "bool",
          "name": "",
          "type": "bool"
        }
      ],
      "stateMutability": "nonpayable",
      "type": "function"
    }
  ],
  "bytecode": "0x60806040523480156200001157600080fd5b506040518060400160405280600781526020017f4775696c644669000000000000000000000000000000000000000000000000008152506040518060400160405280600281526020017f474600000000000000000000000000000000000000000000000000000000000081525081600390816200008f919062000324565b508060049081620000a1919062000324565b5050506200040b565b600081519050919050565b7f4e487b7100000000000000000000000000000000000000000000000000000000600052604160045260246000fd5b7f4e487b7100000000000000000000000000000000000000000000000000000000600052602260045260246000fd5b600060028204905060018216806200012c57607f821691505b602082108103620001425762000141620000e4565b5b50919050565b60008190508160005260206000209050919050565b60006020601f8301049050919050565b600082821b905092915050565b600060088302620001ac7fffffffffffffffffffffffffffffffffffffffffffffffffffffffffffffffff826200016d565b620001b886836200016d565b95508019841693508086168417925050509392505050565b6000819050919050565b6000819050919050565b600062000205620001ff620001f984620001d0565b620001da565b620001d0565b9050919050565b6000819050919050565b6200022183620001e4565b6200023962000230826200020c565b8484546200017a565b825550505050565b600090565b6200025062000241565b6200025d81848462000216565b505050565b5b8181101562000285576200027960008262000246565b60018101905062000263565b5050565b601f821115620002d4576200029e8162000148565b620002a9846200015d565b81016020851015620002b9578190505b620002d1620002c8856200015d565b83018262000262565b50505b505050565b600082821c905092915050565b6000620002f960001984600802620002d9565b1980831691505092915050565b6000620003148383620002e6565b9150826002028217905092915050565b6200032f82620000aa565b67ffffffffffffffff8111156200034b576200034a620000b5565b5b62000357825462000113565b6200036482828562000289565b600060209050601f8311600181146200039c576000841562000387578287015190505b62000393858262000306565b86555062000403565b601f198416620003ac8662000148565b60005b82811015620003d657848901518255600182019150602085019450602081019050620003af565b86831015620003f65784890151620003f2601f891682620002e6565b8355505b6001600288020188555050505b505050505050565b610fb9806200041b6000396000f3fe608060405234801561001057600080fd5b50600436106100a95760003560e01c806370a082311161007157806370a082311461016857806395d89b4114610198578063a0712d68146101b6578063a9059cbb146101d2578063d539139314610202578063dd62ed3e14610220576100a9565b806306fdde03146100ae578063095ea7b3146100cc57806318160ddd146100fc57806323b872dd1461011a578063313ce5671461014a575b600080fd5b6100b6610250565b6040516100c39190610bac565b60405180910390f35b6100e660048036038101906100e19190610c67565b6102e2565b6040516100f39190610cc2565b60405180910390f35b610104610305565b6040516101119190610cec565b60405180910390f35b610134600480360381019061012f9190610d07565b61030f565b6040516101419190610cc2565b60405180910390f35b61015261033e565b60405161015f9190610d76565b60405180910390f35b610182600480360381019061017d9190610d91565b610347565b60405161018f9190610cec565b60405180910390f35b6101a061038f565b6040516101ad9190610bac565b60405180910390f35b6101d060048036038101906101cb9190610dbe565b610421565b005b6101ec60048036038101906101e79190610c67565b61042e565b6040516101f99190610cc2565b60405180910390f35b61020a610451565b6040516102179190610e04565b60405180910390f35b61023a60048036038101906102359190610e1f565b610475565b6040516102479190610cec565b60405180910390f35b60606003805461025f90610e8e565b80601f016020809104026020016040519081016040528092919081815260200182805461028b90610e8e565b80156102d85780601f106102ad576101008083540402835291602001916102d8565b820191906000526020600020905b8154815290600101906020018083116102bb57829003601f168201915b5050505050905090565b6000806102ed6104fc565b90506102fa818585610504565b600191505092915050565b6000600254905090565b60008061031a6104fc565b9050610327858285610516565b6103328585856105aa565b60019150509392505050565b60006012905090565b60008060008373ffffffffffffffffffffffffffffffffffffffff1673ffffffffffffffffffffffffffffffffffffffff168152602001908152602001600020549050919050565b60606004805461039e90610e8e565b80601f01602080910402602001604051908101604052809291908181526020018280546103ca90610e8e565b80156104175780601f106103ec57610100808354040283529160200191610417565b820191906000526020600020905b8154815290600101906020018083116103fa57829003601f168201915b5050505050905090565b61042b338261069e565b50565b6000806104396104fc565b90506104468185856105aa565b600191505092915050565b7f9f2df0fed2c77648de5860a4cc508cd0818c85b8b8a1ab4ceeef8d981c8956a681565b6000600160008473ffffffffffffffffffffffffffffffffffffffff1673ffffffffffffffffffffffffffffffffffffffff16815260200190815260200160002060008373ffffffffffffffffffffffffffffffffffffffff1673ffffffffffffffffffffffffffffffffffffffff16815260200190815260200160002054905092915050565b600033905090565b6105118383836001610720565b505050565b60006105228484610475565b90507fffffffffffffffffffffffffffffffffffffffffffffffffffffffffffffffff81146105a45781811015610594578281836040517ffb8f41b200000000000000000000000000000000000000000000000000000000815260040161058b93929190610ece565b60405180910390fd5b6105a384848484036000610720565b5b50505050565b600073ffffffffffffffffffffffffffffffffffffffff168373ffffffffffffffffffffffffffffffffffffffff160361061c5760006040517f96c6fd1e0000000000000000000000000000000000000000000000000000000081526004016106139190610f05565b60405180910390fd5b600073ffffffffffffffffffffffffffffffffffffffff168273ffffffffffffffffffffffffffffffffffffffff160361068e5760006040517fec442f050000000000000000000000000000000000000000000000000000000081526004016106859190610f05565b60405180910390fd5b6106998383836108f7565b505050565b600073ffffffffffffffffffffffffffffffffffffffff168273ffffffffffffffffffffffffffffffffffffffff16036107105760006040517fec442f050000000000000000000000000000000000000000000000000000000081526004016107079190610f05565b60405180910390fd5b61071c600083836108f7565b5050565b600073ffffffffffffffffffffffffffffffffffffffff168473ffffffffffffffffffffffffffffffffffffffff16036107925760006040517fe602df050000000000000000000000000000000000000000000000000000000081526004016107899190610f05565b60405180910390fd5b600073ffffffffffffffffffffffffffffffffffffffff168373ffffffffffffffffffffffffffffffffffffffff16036108045760006040517f94280d620000000000000000000000000000000000000000000000000000000081526004016107fb9190610f05565b60405180910390fd5b81600160008673ffffffffffffffffffffffffffffffffffffffff1673ffffffffffffffffffffffffffffffffffffffff16815260200190815260200160002060008573ffffffffffffffffffffffffffffffffffffffff1673ffffffffffffffffffffffffffffffffffffffff1681526020019081526020016000208190555080156108f1578273ffffffffffffffffffffffffffffffffffffffff168473ffffffffffffffffffffffffffffffffffffffff167f8c5be1e5ebec7d5bd14f71427d1e84f3dd0314c0f7b2291e5b200ac8c7c3b925846040516108e89190610cec565b60405180910390a35b50505050565b600073ffffffffffffffffffffffffffffffffffffffff168373ffffffffffffffffffffffffffffffffffffffff160361094957806002600082825461093d9190610f4f565b92505081905550610a1c565b60008060008573ffffffffffffffffffffffffffffffffffffffff1673ffffffffffffffffffffffffffffffffffffffff168152602001908152602001600020549050818110156109d5578381836040517fe450d38c0000000000000000000000000000000000000000000000000000000081526004016109cc93929190610ece565b60405180910390fd5b8181036000808673ffffffffffffffffffffffffffffffffffffffff1673ffffffffffffffffffffffffffffffffffffffff16815260200190815260200160002081905550505b600073ffffffffffffffffffffffffffffffffffffffff168273ffffffffffffffffffffffffffffffffffffffff1603610a655780600260008282540392505081905550610ab2565b806000808473ffffffffffffffffffffffffffffffffffffffff1673ffffffffffffffffffffffffffffffffffffffff168152602001908152602001600020600082825401925050819055505b8173ffffffffffffffffffffffffffffffffffffffff168373ffffffffffffffffffffffffffffffffffffffff167fddf252ad1be2c89b69c2b068fc378daa952ba7f163c4a11628f55a4df523b3ef83604051610b0f9190610cec565b60405180910390a3505050565b600081519050919050565b600082825260208201905092915050565b60005b83811015610b56578082015181840152602081019050610b3b565b60008484015250505050565b6000601f19601f8301169050919050565b6000610b7e82610b1c565b610b888185610b27565b9350610b98818560208601610b38565b610ba181610b62565b840191505092915050565b60006020820190508181036000830152610bc68184610b73565b905092915050565b600080fd5b600073ffffffffffffffffffffffffffffffffffffffff82169050919050565b6000610bfe82610bd3565b9050919050565b610c0e81610bf3565b8114610c1957600080fd5b50565b600081359050610c2b81610c05565b92915050565b6000819050919050565b610c4481610c31565b8114610c4f57600080fd5b50565b600081359050610c6181610c3b565b92915050565b60008060408385031215610c7e57610c7d610bce565b5b6000610c8c85828601610c1c565b9250506020610c9d85828601610c52565b9150509250929050565b60008115159050919050565b610cbc81610ca7565b82525050565b6000602082019050610cd76000830184610cb3565b92915050565b610ce681610c31565b82525050565b6000602082019050610d016000830184610cdd565b92915050565b600080600060608486031215610d2057610d1f610bce565b5b6000610d2e86828701610c1c565b9350506020610d3f86828701610c1c565b9250506040610d5086828701610c52565b9150509250925092565b600060ff82169050919050565b610d7081610d5a565b82525050565b6000602082019050610d8b6000830184610d67565b92915050565b600060208284031215610da757610da6610bce565b5b6000610db584828501610c1c565b91505092915050565b600060208284031215610dd457610dd3610bce565b5b6000610de284828501610c52565b91505092915050565b6000819050919050565b610dfe81610deb565b82525050565b6000602082019050610e196000830184610df5565b92915050565b60008060408385031215610e3657610e35610bce565b5b6000610e4485828601610c1c565b9250506020610e5585828601610c1c565b9150509250929050565b7f4e487b7100000000000000000000000000000000000000000000000000000000600052602260045260246000fd5b60006002820490506001821680610ea657607f821691505b602082108103610eb957610eb8610e5f565b5b50919050565b610ec881610bf3565b82525050565b6000606082019050610ee36000830186610ebf565b610ef06020830185610cdd565b610efd6040830184610cdd565b949350505050565b6000602082019050610f1a6000830184610ebf565b92915050565b7f4e487b7100000000000000000000000000000000000000000000000000000000600052601160045260246000fd5b6000610f5a82610c31565b9150610f6583610c31565b9250828201905080821115610f7d57610f7c610f20565b5b9291505056fea26469706673582212205c97f9cc61da2b3b8333e0ec9604b932704ee5458ab67d08bc8372412a5da63564736f6c63430008140033",
  "linkReferences": {},
  "deployedLinkReferences": {}
}