{
  "_format": "hh-sol-artifact-1",
  "contractName": "Migrator",
  "sourceName": "contracts/Migrator.sol",
  "abi": [
    {
      "inputs": [
        {
          "internalType": "address",
          "name": "_gfToken",
          "type": "address"
        }
      ],
      "stateMutability": "nonpayable",
      "type": "constructor"
    },
    {
      "inputs": [
        {
          "internalType": "address",
          "name": "owner",
          "type": "address"
        }
      ],
      "name": "OwnableInvalidOwner",
      "type": "error"
    },
    {
      "inputs": [
        {
          "internalType": "address",
          "name": "account",
          "type": "address"
        }
      ],
      "name": "OwnableUnauthorizedAccount",
      "type": "error"
    },
    {
      "anonymous": false,
      "inputs": [
        {
          "indexed": true,
          "internalType": "address",
          "name": "migrant",
          "type": "address"
        },
        {
          "indexed": true,
          "internalType": "uint256",
          "name": "destinationAmount",
          "type": "uint256"
        }
      ],
      "name": "Migrated",
      "type": "event"
    },
    {
      "anonymous": false,
      "inputs": [
        {
          "indexed": true,
          "internalType": "address",
          "name": "previousOwner",
          "type": "address"
        },
        {
          "indexed": true,
          "internalType": "address",
          "name": "newOwner",
          "type": "address"
        }
      ],
      "name": "OwnershipTransferred",
      "type": "event"
    },
    {
      "inputs": [],
      "name": "MIGRATE_RATE",
      "outputs": [
        {
          "internalType": "uint256",
          "name": "",
          "type": "uint256"
        }
      ],
      "stateMutability": "view",
      "type": "function"
    },
    {
      "inputs": [],
      "name": "gfToken",
      "outputs": [
        {
          "internalType": "contract IERC20",
          "name": "",
          "type": "address"
        }
      ],
      "stateMutability": "view",
      "type": "function"
    },
    {
      "inputs": [],
      "name": "migrate",
      "outputs": [],
      "stateMutability": "nonpayable",
      "type": "function"
    },
    {
      "inputs": [],
      "name": "owner",
      "outputs": [
        {
          "internalType": "address",
          "name": "",
          "type": "address"
        }
      ],
      "stateMutability": "view",
      "type": "function"
    },
    {
      "inputs": [],
      "name": "renounceOwnership",
      "outputs": [],
      "stateMutability": "nonpayable",
      "type": "function"
    },
    {
      "inputs": [
        {
          "internalType": "address",
          "name": "_zentryToken",
          "type": "address"
        }
      ],
      "name": "setZentryToken",
      "outputs": [],
      "stateMutability": "nonpayable",
      "type": "function"
    },
    {
      "inputs": [
        {
          "internalType": "address",
          "name": "newOwner",
          "type": "address"
        }
      ],
      "name": "transferOwnership",
      "outputs": [],
      "stateMutability": "nonpayable",
      "type": "function"
    },
    {
      "inputs": [],
      "name": "zentryToken",
      "outputs": [
        {
          "internalType": "contract ZentryToken",
          "name": "",
          "type": "address"
        }
      ],
      "stateMutability": "view",
      "type": "function"
    }
  ],
  "bytecode": "0x60c0604052600a60a09081525034801561001857600080fd5b5060405162000c8238038062000c82833981810160405281019061003c9190610220565b33600073ffffffffffffffffffffffffffffffffffffffff168173ffffffffffffffffffffffffffffffffffffffff16036100af5760006040517f1e4fbdf70000000000000000000000000000000000000000000000000000000081526004016100a6919061025c565b60405180910390fd5b6100be816100f960201b60201c565b508073ffffffffffffffffffffffffffffffffffffffff1660808173ffffffffffffffffffffffffffffffffffffffff168152505050610277565b60008060009054906101000a900473ffffffffffffffffffffffffffffffffffffffff169050816000806101000a81548173ffffffffffffffffffffffffffffffffffffffff021916908373ffffffffffffffffffffffffffffffffffffffff1602179055508173ffffffffffffffffffffffffffffffffffffffff168173ffffffffffffffffffffffffffffffffffffffff167f8be0079c531659141344cd1fd0a4f28419497f9722a3daafe3b4186f6b6457e060405160405180910390a35050565b600080fd5b600073ffffffffffffffffffffffffffffffffffffffff82169050919050565b60006101ed826101c2565b9050919050565b6101fd816101e2565b811461020857600080fd5b50565b60008151905061021a816101f4565b92915050565b600060208284031215610236576102356101bd565b5b60006102448482850161020b565b91505092915050565b610256816101e2565b82525050565b6000602082019050610271600083018461024d565b92915050565b60805160a0516109d0620002b2600039600081816102c6015261046c0152600081816101530152818161022801526102f401526109d06000f3fe608060405234801561001057600080fd5b50600436106100885760003560e01c80638da5cb5b1161005b5780638da5cb5b146100ef5780638fd3ab801461010d578063a7392d8314610117578063f2fde38b1461013557610088565b80630ad9048d1461008d5780631d735c54146100ab578063630c31c7146100c9578063715018a6146100e5575b600080fd5b610095610151565b6040516100a291906106e6565b60405180910390f35b6100b3610175565b6040516100c09190610722565b60405180910390f35b6100e360048036038101906100de9190610780565b61019b565b005b6100ed6101e7565b005b6100f76101fb565b60405161010491906107bc565b60405180910390f35b610115610224565b005b61011f61046a565b60405161012c91906107f0565b60405180910390f35b61014f600480360381019061014a9190610780565b61048e565b005b7f000000000000000000000000000000000000000000000000000000000000000081565b600160009054906101000a900473ffffffffffffffffffffffffffffffffffffffff1681565b6101a3610514565b80600160006101000a81548173ffffffffffffffffffffffffffffffffffffffff021916908373ffffffffffffffffffffffffffffffffffffffff16021790555050565b6101ef610514565b6101f9600061059b565b565b60008060009054906101000a900473ffffffffffffffffffffffffffffffffffffffff16905090565b60007f000000000000000000000000000000000000000000000000000000000000000073ffffffffffffffffffffffffffffffffffffffff166370a08231336040518263ffffffff1660e01b815260040161027f91906107bc565b602060405180830381865afa15801561029c573d6000803e3d6000fd5b505050506040513d601f19601f820116820180604052508101906102c09190610837565b905060007f0000000000000000000000000000000000000000000000000000000000000000826102f09190610893565b90507f000000000000000000000000000000000000000000000000000000000000000073ffffffffffffffffffffffffffffffffffffffff166323b872dd3330856040518463ffffffff1660e01b815260040161034f939291906108d5565b6020604051808303816000875af115801561036e573d6000803e3d6000fd5b505050506040513d601f19601f820116820180604052508101906103929190610944565b50600160009054906101000a900473ffffffffffffffffffffffffffffffffffffffff1673ffffffffffffffffffffffffffffffffffffffff166340c10f1933836040518363ffffffff1660e01b81526004016103f0929190610971565b600060405180830381600087803b15801561040a57600080fd5b505af115801561041e573d6000803e3d6000fd5b50505050803373ffffffffffffffffffffffffffffffffffffffff167f8b80bd19aea7b735bc6d75db8d6adbe18b28c30d62b3555245eb67b2340caedc60405160405180910390a35050565b7f000000000000000000000000000000000000000000000000000000000000000081565b610496610514565b600073ffffffffffffffffffffffffffffffffffffffff168173ffffffffffffffffffffffffffffffffffffffff16036105085760006040517f1e4fbdf70000000000000000000000000000000000000000000000000000000081526004016104ff91906107bc565b60405180910390fd5b6105118161059b565b50565b61051c61065f565b73ffffffffffffffffffffffffffffffffffffffff1661053a6101fb565b73ffffffffffffffffffffffffffffffffffffffff16146105995761055d61065f565b6040517f118cdaa700000000000000000000000000000000000000000000000000000000815260040161059091906107bc565b60405180910390fd5b565b60008060009054906101000a900473ffffffffffffffffffffffffffffffffffffffff169050816000806101000a81548173ffffffffffffffffffffffffffffffffffffffff021916908373ffffffffffffffffffffffffffffffffffffffff1602179055508173ffffffffffffffffffffffffffffffffffffffff168173ffffffffffffffffffffffffffffffffffffffff167f8be0079c531659141344cd1fd0a4f28419497f9722a3daafe3b4186f6b6457e060405160405180910390a35050565b600033905090565b600073ffffffffffffffffffffffffffffffffffffffff82169050919050565b6000819050919050565b60006106ac6106a76106a284610667565b610687565b610667565b9050919050565b60006106be82610691565b9050919050565b60006106d0826106b3565b9050919050565b6106e0816106c5565b82525050565b60006020820190506106fb60008301846106d7565b92915050565b600061070c826106b3565b9050919050565b61071c81610701565b82525050565b60006020820190506107376000830184610713565b92915050565b600080fd5b600061074d82610667565b9050919050565b61075d81610742565b811461076857600080fd5b50565b60008135905061077a81610754565b92915050565b6000602082840312156107965761079561073d565b5b60006107a48482850161076b565b91505092915050565b6107b681610742565b82525050565b60006020820190506107d160008301846107ad565b92915050565b6000819050919050565b6107ea816107d7565b82525050565b600060208201905061080560008301846107e1565b92915050565b610814816107d7565b811461081f57600080fd5b50565b6000815190506108318161080b565b92915050565b60006020828403121561084d5761084c61073d565b5b600061085b84828501610822565b91505092915050565b7f4e487b7100000000000000000000000000000000000000000000000000000000600052601160045260246000fd5b600061089e826107d7565b91506108a9836107d7565b92508282026108b7816107d7565b915082820484148315176108ce576108cd610864565b5b5092915050565b60006060820190506108ea60008301866107ad565b6108f760208301856107ad565b61090460408301846107e1565b949350505050565b60008115159050919050565b6109218161090c565b811461092c57600080fd5b50565b60008151905061093e81610918565b92915050565b60006020828403121561095a5761095961073d565b5b60006109688482850161092f565b91505092915050565b600060408201905061098660008301856107ad565b61099360208301846107e1565b939250505056fea2646970667358221220db3b5a862750b8683e8158967021d16083928d714a531e8c3da41e5ce8d96c2464736f6c63430008140033",
  "linkReferences": {},
  "deployedLinkReferences": {}
}