{
  "_format": "hh-sol-artifact-1",
  "contractName": "Migrator",
  "sourceName": "contracts/Migrator.sol",
  "abi": [
    {
      "inputs": [
        {
          "internalType": "address",
          "name": "_gfToken",
          "type": "address"
        },
        {
          "internalType": "address",
          "name": "_zentryToken",
          "type": "address"
        }
      ],
      "stateMutability": "nonpayable",
      "type": "constructor"
    },
    {
      "inputs": [
        {
          "internalType": "address",
          "name": "owner",
          "type": "address"
        }
      ],
      "name": "OwnableInvalidOwner",
      "type": "error"
    },
    {
      "inputs": [
        {
          "internalType": "address",
          "name": "account",
          "type": "address"
        }
      ],
      "name": "OwnableUnauthorizedAccount",
      "type": "error"
    },
    {
      "anonymous": false,
      "inputs": [
        {
          "indexed": true,
          "internalType": "address",
          "name": "migrant",
          "type": "address"
        },
        {
          "indexed": true,
          "internalType": "uint256",
          "name": "destinationAmount",
          "type": "uint256"
        }
      ],
      "name": "Migrated",
      "type": "event"
    },
    {
      "anonymous": false,
      "inputs": [
        {
          "indexed": true,
          "internalType": "address",
          "name": "previousOwner",
          "type": "address"
        },
        {
          "indexed": true,
          "internalType": "address",
          "name": "newOwner",
          "type": "address"
        }
      ],
      "name": "OwnershipTransferred",
      "type": "event"
    },
    {
      "inputs": [],
      "name": "MIGRATE_RATE",
      "outputs": [
        {
          "internalType": "uint256",
          "name": "",
          "type": "uint256"
        }
      ],
      "stateMutability": "view",
      "type": "function"
    },
    {
      "inputs": [],
      "name": "disableMigration",
      "outputs": [],
      "stateMutability": "nonpayable",
      "type": "function"
    },
    {
      "inputs": [],
      "name": "enableMigration",
      "outputs": [],
      "stateMutability": "nonpayable",
      "type": "function"
    },
    {
      "inputs": [],
      "name": "gfToken",
      "outputs": [
        {
          "internalType": "contract IERC20",
          "name": "",
          "type": "address"
        }
      ],
      "stateMutability": "view",
      "type": "function"
    },
    {
      "inputs": [],
      "name": "migrate",
      "outputs": [],
      "stateMutability": "nonpayable",
      "type": "function"
    },
    {
      "inputs": [],
      "name": "migrationEnabled",
      "outputs": [
        {
          "internalType": "bool",
          "name": "",
          "type": "bool"
        }
      ],
      "stateMutability": "view",
      "type": "function"
    },
    {
      "inputs": [],
      "name": "owner",
      "outputs": [
        {
          "internalType": "address",
          "name": "",
          "type": "address"
        }
      ],
      "stateMutability": "view",
      "type": "function"
    },
    {
      "inputs": [],
      "name": "renounceOwnership",
      "outputs": [],
      "stateMutability": "nonpayable",
      "type": "function"
    },
    {
      "inputs": [
        {
          "internalType": "address",
          "name": "newOwner",
          "type": "address"
        }
      ],
      "name": "transferOwnership",
      "outputs": [],
      "stateMutability": "nonpayable",
      "type": "function"
    },
    {
      "inputs": [],
      "name": "zentryToken",
      "outputs": [
        {
          "internalType": "contract ZentryToken",
          "name": "",
          "type": "address"
        }
      ],
      "stateMutability": "view",
      "type": "function"
    }
  ],
  "bytecode": "0x60c03461010f57601f6109e538819003918201601f19168301916001600160401b0383118484101761011457808492604094855283398101031261010f57610052602061004b8361012a565b920161012a565b33156100f65760008054336001600160a01b031982168117835560405194926001600160a01b03928316907f8be0079c531659141344cd1fd0a4f28419497f9722a3daafe3b4186f6b6457e09080a3600a60a052600180549282166080526001600160a81b0319909216921691909117600160a01b1790556108a6908161013f82396080518181816102c3015261078b015260a05181818161021a01526102fd0152f35b604051631e4fbdf760e01b815260006004820152602490fd5b600080fd5b634e487b7160e01b600052604160045260246000fd5b51906001600160a01b038216820361010f5756fe608060408181526004908136101561001657600080fd5b600092833560e01c9081630ad9048d14610741575080631a7146f6146106c85780631d735c541461067557806335b944bf14610630578063715018a6146105945780638da5cb5b146105435780638fd3ab8014610241578063a7392d83146101e4578063adf5e30c1461017f5763f2fde38b1461009257600080fd5b3461017b5760207ffffffffffffffffffffffffffffffffffffffffffffffffffffffffffffffffc36011261017b5781359173ffffffffffffffffffffffffffffffffffffffff91828416809403610177576100ec6107af565b8315610148575050600054827fffffffffffffffffffffffff0000000000000000000000000000000000000000821617600055167f8be0079c531659141344cd1fd0a4f28419497f9722a3daafe3b4186f6b6457e0600080a380f35b908460249251917f1e4fbdf7000000000000000000000000000000000000000000000000000000008352820152fd5b8480fd5b8280fd5b83346101e157807ffffffffffffffffffffffffffffffffffffffffffffffffffffffffffffffffc3601126101e1576101b66107af565b7fffffffffffffffffffffff00ffffffffffffffffffffffffffffffffffffffff6001541660015580f35b80fd5b83823461023d57817ffffffffffffffffffffffffffffffffffffffffffffffffffffffffffffffffc36011261023d57602090517f00000000000000000000000000000000000000000000000000000000000000008152f35b5080fd5b5082346101e157807ffffffffffffffffffffffffffffffffffffffffffffffffffffffffffffffffc3601126101e15760ff60015460a01c16156104e65781517f70a0823100000000000000000000000000000000000000000000000000000000815233848201529173ffffffffffffffffffffffffffffffffffffffff60207f000000000000000000000000000000000000000000000000000000000000000082168186602481845afa9586156104815785966104b7575b507f00000000000000000000000000000000000000000000000000000000000000009586810296818804148115171561048b5791809160648794875195869384927f23b872dd0000000000000000000000000000000000000000000000000000000084528d339085015230602485015260448401525af180156104815761044a575b50506001541693843b1561017b578280949560448451809681937f40c10f1900000000000000000000000000000000000000000000000000000000835233878401528a60248401525af18015610440576103fb575b8385337f8b80bd19aea7b735bc6d75db8d6adbe18b28c30d62b3555245eb67b2340caedc8380a380f35b67ffffffffffffffff83116104145750528280806103d1565b8360416024927f4e487b7100000000000000000000000000000000000000000000000000000000835252fd5b82513d86823e3d90fd5b81813d831161047a575b61045e8183610800565b8101031261047657518015150361017b57858061037c565b8380fd5b503d610454565b84513d87823e3d90fd5b60248660118a7f4e487b7100000000000000000000000000000000000000000000000000000000835252fd5b9095508181813d83116104df575b6104cf8183610800565b81010312610177575194876102fa565b503d6104c5565b60648360208451917f08c379a0000000000000000000000000000000000000000000000000000000008352820152601f60248201527f4d6967726174696f6e2069732063757272656e746c792064697361626c6564006044820152fd5b83823461023d57817ffffffffffffffffffffffffffffffffffffffffffffffffffffffffffffffffc36011261023d5773ffffffffffffffffffffffffffffffffffffffff60209254169051908152f35b83346101e157807ffffffffffffffffffffffffffffffffffffffffffffffffffffffffffffffffc3601126101e1576105cb6107af565b8073ffffffffffffffffffffffffffffffffffffffff81547fffffffffffffffffffffffff000000000000000000000000000000000000000081168355167f8be0079c531659141344cd1fd0a4f28419497f9722a3daafe3b4186f6b6457e08280a380f35b83823461023d57817ffffffffffffffffffffffffffffffffffffffffffffffffffffffffffffffffc36011261023d5760209060ff60015460a01c1690519015158152f35b83823461023d57817ffffffffffffffffffffffffffffffffffffffffffffffffffffffffffffffffc36011261023d5760209073ffffffffffffffffffffffffffffffffffffffff600154169051908152f35b83346101e157807ffffffffffffffffffffffffffffffffffffffffffffffffffffffffffffffffc3601126101e1576106ff6107af565b740100000000000000000000000000000000000000007fffffffffffffffffffffff00ffffffffffffffffffffffffffffffffffffffff600154161760015580f35b84903461023d57817ffffffffffffffffffffffffffffffffffffffffffffffffffffffffffffffffc36011261023d5760209073ffffffffffffffffffffffffffffffffffffffff7f0000000000000000000000000000000000000000000000000000000000000000168152f35b73ffffffffffffffffffffffffffffffffffffffff6000541633036107d057565b60246040517f118cdaa7000000000000000000000000000000000000000000000000000000008152336004820152fd5b90601f7fffffffffffffffffffffffffffffffffffffffffffffffffffffffffffffffe0910116810190811067ffffffffffffffff82111761084157604052565b7f4e487b7100000000000000000000000000000000000000000000000000000000600052604160045260246000fdfea2646970667358221220e90c6720b267867d1e29ed22c722784725fca4da29d1e33a1287b28ba9ec423b64736f6c63430008140033",
  "linkReferences": {},
  "deployedLinkReferences": {}
}